{
  "contractName": "Voting",
  "abi": [
    {
      "anonymous": false,
      "inputs": [
        {
          "indexed": true,
          "internalType": "address",
          "name": "previousOwner",
          "type": "address"
        },
        {
          "indexed": true,
          "internalType": "address",
          "name": "newOwner",
          "type": "address"
        }
      ],
      "name": "OwnershipTransferred",
      "type": "event"
    },
    {
      "inputs": [
        {
          "internalType": "uint256",
          "name": "",
          "type": "uint256"
        }
      ],
      "name": "candidateList",
      "outputs": [
        {
          "internalType": "bytes32",
          "name": "",
          "type": "bytes32"
        }
      ],
      "stateMutability": "view",
      "type": "function",
      "constant": true
    },
    {
      "inputs": [],
      "name": "owner",
      "outputs": [
        {
          "internalType": "address",
          "name": "",
          "type": "address"
        }
      ],
      "stateMutability": "view",
      "type": "function",
      "constant": true
    },
    {
      "inputs": [],
      "name": "renounceOwnership",
      "outputs": [],
      "stateMutability": "nonpayable",
      "type": "function"
    },
    {
      "inputs": [
        {
          "internalType": "address",
          "name": "newOwner",
          "type": "address"
        }
      ],
      "name": "transferOwnership",
      "outputs": [],
      "stateMutability": "nonpayable",
      "type": "function"
    },
    {
      "inputs": [
        {
          "internalType": "bytes32",
          "name": "",
          "type": "bytes32"
        }
      ],
      "name": "votesReceived",
      "outputs": [
        {
          "internalType": "uint8",
          "name": "",
          "type": "uint8"
        }
      ],
      "stateMutability": "view",
      "type": "function",
      "constant": true
    },
    {
      "inputs": [
        {
          "internalType": "bytes32",
          "name": "_candidate",
          "type": "bytes32"
        }
      ],
      "name": "candidate",
      "outputs": [],
      "stateMutability": "nonpayable",
      "type": "function"
    },
    {
      "inputs": [
        {
          "internalType": "bytes32",
          "name": "_candidate",
          "type": "bytes32"
        }
      ],
      "name": "totalVotesFor",
      "outputs": [
        {
          "internalType": "uint8",
          "name": "",
          "type": "uint8"
        }
      ],
      "stateMutability": "view",
      "type": "function",
      "constant": true
    },
    {
      "inputs": [
        {
          "internalType": "bytes32",
          "name": "_candidate",
          "type": "bytes32"
        }
      ],
      "name": "voteForCandidate",
      "outputs": [],
      "stateMutability": "nonpayable",
      "type": "function"
    },
    {
      "inputs": [
        {
          "internalType": "bytes32",
          "name": "_candidate",
          "type": "bytes32"
        }
      ],
      "name": "validCandidate",
      "outputs": [
        {
          "internalType": "bool",
          "name": "",
          "type": "bool"
        }
      ],
      "stateMutability": "view",
      "type": "function",
      "constant": true
    }
  ],
  "bytecode": "0x608060405234801561001057600080fd5b5061002d61002261003260201b60201c565b61003a60201b60201c565b6100fe565b600033905090565b60008060009054906101000a900473ffffffffffffffffffffffffffffffffffffffff169050816000806101000a81548173ffffffffffffffffffffffffffffffffffffffff021916908373ffffffffffffffffffffffffffffffffffffffff1602179055508173ffffffffffffffffffffffffffffffffffffffff168173ffffffffffffffffffffffffffffffffffffffff167f8be0079c531659141344cd1fd0a4f28419497f9722a3daafe3b4186f6b6457e060405160405180910390a35050565b610b3f8061010d6000396000f3fe608060405234801561001057600080fd5b50600436106100935760003560e01c80638da5cb5b116100665780638da5cb5b14610132578063b13c744b14610150578063cc9ab26714610180578063f2fde38b1461019c578063ff32cca3146101b857610093565b80632f265cf714610098578063392e6678146100c85780637021939f146100f8578063715018a614610128575b600080fd5b6100b260048036038101906100ad91906106d5565b6101d4565b6040516100bf919061071e565b60405180910390f35b6100e260048036038101906100dd91906106d5565b610246565b6040516100ef9190610754565b60405180910390f35b610112600480360381019061010d91906106d5565b6102a8565b60405161011f919061071e565b60405180910390f35b6101306102c8565b005b61013a610350565b60405161014791906107b0565b60405180910390f35b61016a60048036038101906101659190610801565b610379565b604051610177919061083d565b60405180910390f35b61019a600480360381019061019591906106d5565b61039d565b005b6101b660048036038101906101b19190610884565b61042f565b005b6101d260048036038101906101cd91906106d5565b610526565b005b60006101df82610246565b61021e576040517f08c379a00000000000000000000000000000000000000000000000000000000081526004016102159061090e565b60405180910390fd5b6001600083815260200190815260200160002060009054906101000a900460ff169050919050565b600080600090505b60028054905081101561029d5782600282815481106102705761026f61092e565b5b90600052602060002001540361028a5760019150506102a3565b80806102959061098c565b91505061024e565b50600090505b919050565b60016020528060005260406000206000915054906101000a900460ff1681565b6102d06105ce565b73ffffffffffffffffffffffffffffffffffffffff166102ee610350565b73ffffffffffffffffffffffffffffffffffffffff1614610344576040517f08c379a000000000000000000000000000000000000000000000000000000000815260040161033b90610a20565b60405180910390fd5b61034e60006105d6565b565b60008060009054906101000a900473ffffffffffffffffffffffffffffffffffffffff16905090565b6002818154811061038957600080fd5b906000526020600020016000915090505481565b6103a681610246565b6103e5576040517f08c379a00000000000000000000000000000000000000000000000000000000081526004016103dc9061090e565b60405180910390fd5b600180600083815260200190815260200160002060008282829054906101000a900460ff166104149190610a40565b92506101000a81548160ff021916908360ff16021790555050565b6104376105ce565b73ffffffffffffffffffffffffffffffffffffffff16610455610350565b73ffffffffffffffffffffffffffffffffffffffff16146104ab576040517f08c379a00000000000000000000000000000000000000000000000000000000081526004016104a290610a20565b60405180910390fd5b600073ffffffffffffffffffffffffffffffffffffffff168173ffffffffffffffffffffffffffffffffffffffff160361051a576040517f08c379a000000000000000000000000000000000000000000000000000000000815260040161051190610ae9565b60405180910390fd5b610523816105d6565b50565b61052e6105ce565b73ffffffffffffffffffffffffffffffffffffffff1661054c610350565b73ffffffffffffffffffffffffffffffffffffffff16146105a2576040517f08c379a000000000000000000000000000000000000000000000000000000000815260040161059990610a20565b60405180910390fd5b600281908060018154018082558091505060019003906000526020600020016000909190919091505550565b600033905090565b60008060009054906101000a900473ffffffffffffffffffffffffffffffffffffffff169050816000806101000a81548173ffffffffffffffffffffffffffffffffffffffff021916908373ffffffffffffffffffffffffffffffffffffffff1602179055508173ffffffffffffffffffffffffffffffffffffffff168173ffffffffffffffffffffffffffffffffffffffff167f8be0079c531659141344cd1fd0a4f28419497f9722a3daafe3b4186f6b6457e060405160405180910390a35050565b600080fd5b6000819050919050565b6106b28161069f565b81146106bd57600080fd5b50565b6000813590506106cf816106a9565b92915050565b6000602082840312156106eb576106ea61069a565b5b60006106f9848285016106c0565b91505092915050565b600060ff82169050919050565b61071881610702565b82525050565b6000602082019050610733600083018461070f565b92915050565b60008115159050919050565b61074e81610739565b82525050565b60006020820190506107696000830184610745565b92915050565b600073ffffffffffffffffffffffffffffffffffffffff82169050919050565b600061079a8261076f565b9050919050565b6107aa8161078f565b82525050565b60006020820190506107c560008301846107a1565b92915050565b6000819050919050565b6107de816107cb565b81146107e957600080fd5b50565b6000813590506107fb816107d5565b92915050565b6000602082840312156108175761081661069a565b5b6000610825848285016107ec565b91505092915050565b6108378161069f565b82525050565b6000602082019050610852600083018461082e565b92915050565b6108618161078f565b811461086c57600080fd5b50565b60008135905061087e81610858565b92915050565b60006020828403121561089a5761089961069a565b5b60006108a88482850161086f565b91505092915050565b600082825260208201905092915050565b7f4e6f7420612076616c69642063616e6469646174650000000000000000000000600082015250565b60006108f86015836108b1565b9150610903826108c2565b602082019050919050565b60006020820190508181036000830152610927816108eb565b9050919050565b7f4e487b7100000000000000000000000000000000000000000000000000000000600052603260045260246000fd5b7f4e487b7100000000000000000000000000000000000000000000000000000000600052601160045260246000fd5b6000610997826107cb565b91507fffffffffffffffffffffffffffffffffffffffffffffffffffffffffffffffff82036109c9576109c861095d565b5b600182019050919050565b7f4f776e61626c653a2063616c6c6572206973206e6f7420746865206f776e6572600082015250565b6000610a0a6020836108b1565b9150610a15826109d4565b602082019050919050565b60006020820190508181036000830152610a39816109fd565b9050919050565b6000610a4b82610702565b9150610a5683610702565b92508260ff03821115610a6c57610a6b61095d565b5b828201905092915050565b7f4f776e61626c653a206e6577206f776e657220697320746865207a65726f206160008201527f6464726573730000000000000000000000000000000000000000000000000000602082015250565b6000610ad36026836108b1565b9150610ade82610a77565b604082019050919050565b60006020820190508181036000830152610b0281610ac6565b905091905056fea26469706673582212205830f96e6a4f4524ae91f5335b749c19e0e60b6ff6a0a4720402e1b38bd5d47864736f6c634300080d0033",
  "immutableReferences": {},
  "source": "// SPDX-License-Identifier: MIT\npragma solidity ^0.8.0;\n\nimport \"../node_modules/openzeppelin-solidity/contracts/access/Ownable.sol\";\n\ncontract Voting is Ownable {\n    mapping(bytes32 => uint8) public votesReceived;\n    bytes32[] public candidateList;\n\n    function candidate(bytes32 _candidate) public onlyOwner {\n        candidateList.push(_candidate);\n    }\n\n    function totalVotesFor(bytes32 _candidate) public view returns (uint8) {\n        require(validCandidate(_candidate), \"Not a valid candidate\");\n        return votesReceived[_candidate];\n    }\n    \n    function voteForCandidate(bytes32 _candidate) public {\n        require(validCandidate(_candidate), \"Not a valid candidate\");\n        votesReceived[_candidate] += 1;\n    }\n\n    function validCandidate(bytes32 _candidate) public view returns (bool) {\n        for(uint i = 0; i < candidateList.length; i++) {\n            if (candidateList[i] == _candidate)\n            return true;\n        }\n        return false;\n    }\n}\n",
  "sourcePath": "/Users/yangsen/Voting-Truffle/contracts/Voting.sol",
  "compiler": {
    "name": "solc",
    "version": "0.8.13+commit.abaa5c0e.Emscripten.clang"
  },
  "schemaVersion": "3.4.7",
  "updatedAt": "2022-05-26T11:56:03.225Z",
  "networkType": "ethereum",
  "devdoc": {
    "kind": "dev",
    "methods": {
      "owner()": {
        "details": "Returns the address of the current owner."
      },
      "renounceOwnership()": {
        "details": "Leaves the contract without owner. It will not be possible to call `onlyOwner` functions anymore. Can only be called by the current owner. NOTE: Renouncing ownership will leave the contract without an owner, thereby removing any functionality that is only available to the owner."
      },
      "transferOwnership(address)": {
        "details": "Transfers ownership of the contract to a new account (`newOwner`). Can only be called by the current owner."
      }
    },
    "version": 1
  },
  "userdoc": {
    "kind": "user",
    "methods": {},
    "version": 1
  }
}